{
  "contractName": "cGEMToken",
  "abi": [
    {
      "inputs": [
        {
          "internalType": "address",
          "name": "tokenContractAddress",
          "type": "address"
        },
        {
          "internalType": "address",
          "name": "craftingContractAddress",
          "type": "address"
        }
      ],
      "stateMutability": "nonpayable",
      "type": "constructor"
    },
    {
      "anonymous": false,
      "inputs": [
        {
          "indexed": true,
          "internalType": "address",
          "name": "owner",
          "type": "address"
        },
        {
          "indexed": true,
          "internalType": "address",
          "name": "spender",
          "type": "address"
        },
        {
          "indexed": false,
          "internalType": "uint256",
          "name": "value",
          "type": "uint256"
        }
      ],
      "name": "Approval",
      "type": "event"
    },
    {
      "anonymous": false,
      "inputs": [
        {
          "indexed": true,
          "internalType": "address",
          "name": "previousOwner",
          "type": "address"
        },
        {
          "indexed": true,
          "internalType": "address",
          "name": "newOwner",
          "type": "address"
        }
      ],
      "name": "OwnershipTransferred",
      "type": "event"
    },
    {
      "anonymous": false,
      "inputs": [
        {
          "indexed": true,
          "internalType": "address",
          "name": "from",
          "type": "address"
        },
        {
          "indexed": true,
          "internalType": "address",
          "name": "to",
          "type": "address"
        },
        {
          "indexed": false,
          "internalType": "uint256",
          "name": "value",
          "type": "uint256"
        }
      ],
      "name": "Transfer",
      "type": "event"
    },
    {
      "inputs": [],
      "name": "CraftingContract",
      "outputs": [
        {
          "internalType": "address",
          "name": "",
          "type": "address"
        }
      ],
      "stateMutability": "view",
      "type": "function",
      "constant": true
    },
    {
      "inputs": [
        {
          "internalType": "address",
          "name": "owner",
          "type": "address"
        },
        {
          "internalType": "address",
          "name": "spender",
          "type": "address"
        }
      ],
      "name": "allowance",
      "outputs": [
        {
          "internalType": "uint256",
          "name": "",
          "type": "uint256"
        }
      ],
      "stateMutability": "view",
      "type": "function",
      "constant": true
    },
    {
      "inputs": [
        {
          "internalType": "address",
          "name": "spender",
          "type": "address"
        },
        {
          "internalType": "uint256",
          "name": "amount",
          "type": "uint256"
        }
      ],
      "name": "approve",
      "outputs": [
        {
          "internalType": "bool",
          "name": "",
          "type": "bool"
        }
      ],
      "stateMutability": "nonpayable",
      "type": "function"
    },
    {
      "inputs": [
        {
          "internalType": "address",
          "name": "account",
          "type": "address"
        }
      ],
      "name": "balanceOf",
      "outputs": [
        {
          "internalType": "uint256",
          "name": "",
          "type": "uint256"
        }
      ],
      "stateMutability": "view",
      "type": "function",
      "constant": true
    },
    {
      "inputs": [
        {
          "internalType": "address",
          "name": "account",
          "type": "address"
        },
        {
          "internalType": "uint32",
          "name": "amount",
          "type": "uint32"
        }
      ],
      "name": "burn",
      "outputs": [],
      "stateMutability": "nonpayable",
      "type": "function"
    },
    {
      "inputs": [],
      "name": "decimals",
      "outputs": [
        {
          "internalType": "uint8",
          "name": "",
          "type": "uint8"
        }
      ],
      "stateMutability": "view",
      "type": "function",
      "constant": true
    },
    {
      "inputs": [
        {
          "internalType": "address",
          "name": "spender",
          "type": "address"
        },
        {
          "internalType": "uint256",
          "name": "subtractedValue",
          "type": "uint256"
        }
      ],
      "name": "decreaseAllowance",
      "outputs": [
        {
          "internalType": "bool",
          "name": "",
          "type": "bool"
        }
      ],
      "stateMutability": "nonpayable",
      "type": "function"
    },
    {
      "inputs": [],
      "name": "getCraftingContractAddress",
      "outputs": [
        {
          "internalType": "address",
          "name": "",
          "type": "address"
        }
      ],
      "stateMutability": "view",
      "type": "function",
      "constant": true
    },
    {
      "inputs": [],
      "name": "harvest",
      "outputs": [
        {
          "internalType": "uint256",
          "name": "",
          "type": "uint256"
        }
      ],
      "stateMutability": "nonpayable",
      "type": "function"
    },
    {
      "inputs": [
        {
          "internalType": "address",
          "name": "spender",
          "type": "address"
        },
        {
          "internalType": "uint256",
          "name": "addedValue",
          "type": "uint256"
        }
      ],
      "name": "increaseAllowance",
      "outputs": [
        {
          "internalType": "bool",
          "name": "",
          "type": "bool"
        }
      ],
      "stateMutability": "nonpayable",
      "type": "function"
    },
    {
      "inputs": [],
      "name": "name",
      "outputs": [
        {
          "internalType": "string",
          "name": "",
          "type": "string"
        }
      ],
      "stateMutability": "view",
      "type": "function",
      "constant": true
    },
    {
      "inputs": [],
      "name": "owner",
      "outputs": [
        {
          "internalType": "address",
          "name": "",
          "type": "address"
        }
      ],
      "stateMutability": "view",
      "type": "function",
      "constant": true
    },
    {
      "inputs": [],
      "name": "renounceOwnership",
      "outputs": [],
      "stateMutability": "nonpayable",
      "type": "function"
    },
    {
      "inputs": [
        {
          "internalType": "address",
          "name": "craftingContract",
          "type": "address"
        }
      ],
      "name": "setCraftingContract",
      "outputs": [],
      "stateMutability": "nonpayable",
      "type": "function"
    },
    {
      "inputs": [
        {
          "internalType": "uint256",
          "name": "reward",
          "type": "uint256"
        }
      ],
      "name": "setStakeRewardPerBlock",
      "outputs": [],
      "stateMutability": "nonpayable",
      "type": "function"
    },
    {
      "inputs": [
        {
          "internalType": "uint256",
          "name": "amount",
          "type": "uint256"
        }
      ],
      "name": "stake",
      "outputs": [],
      "stateMutability": "nonpayable",
      "type": "function"
    },
    {
      "inputs": [],
      "name": "stakingTokensEarned",
      "outputs": [
        {
          "internalType": "uint256",
          "name": "",
          "type": "uint256"
        }
      ],
      "stateMutability": "view",
      "type": "function",
      "constant": true
    },
    {
      "inputs": [],
      "name": "symbol",
      "outputs": [
        {
          "internalType": "string",
          "name": "",
          "type": "string"
        }
      ],
      "stateMutability": "view",
      "type": "function",
      "constant": true
    },
    {
      "inputs": [],
      "name": "totalSupply",
      "outputs": [
        {
          "internalType": "uint256",
          "name": "",
          "type": "uint256"
        }
      ],
      "stateMutability": "view",
      "type": "function",
      "constant": true
    },
    {
      "inputs": [
        {
          "internalType": "address",
          "name": "to",
          "type": "address"
        },
        {
          "internalType": "uint256",
          "name": "amount",
          "type": "uint256"
        }
      ],
      "name": "transfer",
      "outputs": [
        {
          "internalType": "bool",
          "name": "",
          "type": "bool"
        }
      ],
      "stateMutability": "nonpayable",
      "type": "function"
    },
    {
      "inputs": [
        {
          "internalType": "address",
          "name": "from",
          "type": "address"
        },
        {
          "internalType": "address",
          "name": "to",
          "type": "address"
        },
        {
          "internalType": "uint256",
          "name": "amount",
          "type": "uint256"
        }
      ],
      "name": "transferFrom",
      "outputs": [
        {
          "internalType": "bool",
          "name": "",
          "type": "bool"
        }
      ],
      "stateMutability": "nonpayable",
      "type": "function"
    },
    {
      "inputs": [
        {
          "internalType": "address",
          "name": "newOwner",
          "type": "address"
        }
      ],
      "name": "transferOwnership",
      "outputs": [],
      "stateMutability": "nonpayable",
      "type": "function"
    },
    {
      "inputs": [],
      "name": "withdraw",
      "outputs": [],
      "stateMutability": "nonpayable",
      "type": "function"
    }
  ],
  "bytecode": "0x60a060405260016007553480156200001657600080fd5b5060405162002cca38038062002cca83398181016040528101906200003c919062000436565b81816040518060400160405280600581526020017f635275696e0000000000000000000000000000000000000000000000000000008152506040518060400160405280600481526020017f6347454d0000000000000000000000000000000000000000000000000000000081525081818160039080519060200190620000c49291906200031c565b508060049080519060200190620000dd9291906200031c565b50505062000100620000f46200015160201b60201c565b6200015960201b60201c565b8373ffffffffffffffffffffffffffffffffffffffff1660808173ffffffffffffffffffffffffffffffffffffffff168152505062000145836200021f60201b60201c565b50505050505062000565565b600033905090565b6000600560009054906101000a900473ffffffffffffffffffffffffffffffffffffffff16905081600560006101000a81548173ffffffffffffffffffffffffffffffffffffffff021916908373ffffffffffffffffffffffffffffffffffffffff1602179055508173ffffffffffffffffffffffffffffffffffffffff168173ffffffffffffffffffffffffffffffffffffffff167f8be0079c531659141344cd1fd0a4f28419497f9722a3daafe3b4186f6b6457e060405160405180910390a35050565b6200022f6200015160201b60201c565b73ffffffffffffffffffffffffffffffffffffffff1662000255620002f260201b60201c565b73ffffffffffffffffffffffffffffffffffffffff1614620002ae576040517f08c379a0000000000000000000000000000000000000000000000000000000008152600401620002a590620004de565b60405180910390fd5b80600660006101000a81548173ffffffffffffffffffffffffffffffffffffffff021916908373ffffffffffffffffffffffffffffffffffffffff16021790555050565b6000600560009054906101000a900473ffffffffffffffffffffffffffffffffffffffff16905090565b8280546200032a906200052f565b90600052602060002090601f0160209004810192826200034e57600085556200039a565b82601f106200036957805160ff19168380011785556200039a565b828001600101855582156200039a579182015b82811115620003995782518255916020019190600101906200037c565b5b509050620003a99190620003ad565b5090565b5b80821115620003c8576000816000905550600101620003ae565b5090565b600080fd5b600073ffffffffffffffffffffffffffffffffffffffff82169050919050565b6000620003fe82620003d1565b9050919050565b6200041081620003f1565b81146200041c57600080fd5b50565b600081519050620004308162000405565b92915050565b6000806040838503121562000450576200044f620003cc565b5b600062000460858286016200041f565b925050602062000473858286016200041f565b9150509250929050565b600082825260208201905092915050565b7f4f776e61626c653a2063616c6c6572206973206e6f7420746865206f776e6572600082015250565b6000620004c66020836200047d565b9150620004d3826200048e565b602082019050919050565b60006020820190508181036000830152620004f981620004b7565b9050919050565b7f4e487b7100000000000000000000000000000000000000000000000000000000600052602260045260246000fd5b600060028204905060018216806200054857607f821691505b602082108114156200055f576200055e62000500565b5b50919050565b60805161274262000588600039600081816109240152610e6801526127426000f3fe608060405234801561001057600080fd5b506004361061014d5760003560e01c806370a08231116100c3578063a694fc3a1161007c578063a694fc3a1461037c578063a9059cbb14610398578063dc2d2bf8146103c8578063dd62ed3e146103e6578063f2fde38b14610416578063fefbbb04146104325761014d565b806370a08231146102ba578063715018a6146102ea57806384ff3382146102f45780638da5cb5b1461031057806395d89b411461032e578063a457c2d71461034c5761014d565b806323b872dd1161011557806323b872dd146101f6578063313ce5671461022657806337a29ca11461024457806339509351146102625780633ccfd60b146102925780634641257d1461029c5761014d565b806306fdde0314610152578063095ea7b3146101705780631456a88d146101a057806318160ddd146101bc578063235c8fa7146101da575b600080fd5b61015a610450565b6040516101679190611a7c565b60405180910390f35b61018a60048036038101906101859190611b37565b6104e2565b6040516101979190611b92565b60405180910390f35b6101ba60048036038101906101b59190611bad565b610505565b005b6101c461058b565b6040516101d19190611be9565b60405180910390f35b6101f460048036038101906101ef9190611c40565b610595565b005b610210600480360381019061020b9190611c80565b6105a9565b60405161021d9190611b92565b60405180910390f35b61022e6105d8565b60405161023b9190611cef565b60405180910390f35b61024c6105e1565b6040516102599190611be9565b60405180910390f35b61027c60048036038101906102779190611b37565b61069b565b6040516102899190611b92565b60405180910390f35b61029a610745565b005b6102a46109c4565b6040516102b19190611be9565b60405180910390f35b6102d460048036038101906102cf9190611d0a565b610a26565b6040516102e19190611be9565b60405180910390f35b6102f2610a6e565b005b61030e60048036038101906103099190611d0a565b610af6565b005b610318610bb6565b6040516103259190611d46565b60405180910390f35b610336610be0565b6040516103439190611a7c565b60405180910390f35b61036660048036038101906103619190611b37565b610c72565b6040516103739190611b92565b60405180910390f35b61039660048036038101906103919190611bad565b610d5c565b005b6103b260048036038101906103ad9190611b37565b610f0a565b6040516103bf9190611b92565b60405180910390f35b6103d0610f2d565b6040516103dd9190611d46565b60405180910390f35b61040060048036038101906103fb9190611d61565b610f57565b60405161040d9190611be9565b60405180910390f35b610430600480360381019061042b9190611d0a565b610fde565b005b61043a6110d6565b6040516104479190611d46565b60405180910390f35b60606003805461045f90611dd0565b80601f016020809104026020016040519081016040528092919081815260200182805461048b90611dd0565b80156104d85780601f106104ad576101008083540402835291602001916104d8565b820191906000526020600020905b8154815290600101906020018083116104bb57829003601f168201915b5050505050905090565b6000806104ed6110fc565b90506104fa818585611104565b600191505092915050565b61050d6110fc565b73ffffffffffffffffffffffffffffffffffffffff1661052b610bb6565b73ffffffffffffffffffffffffffffffffffffffff1614610581576040517f08c379a000000000000000000000000000000000000000000000000000000000815260040161057890611e4e565b60405180910390fd5b8060078190555050565b6000600254905090565b6105a5828263ffffffff166112cf565b5050565b6000806105b46110fc565b90506105c18582856114a6565b6105cc858585611532565b60019150509392505050565b60006012905090565b600080600860003373ffffffffffffffffffffffffffffffffffffffff1673ffffffffffffffffffffffffffffffffffffffff1681526020019081526020016000205490506000600960003373ffffffffffffffffffffffffffffffffffffffff1673ffffffffffffffffffffffffffffffffffffffff16815260200190815260200160002054436106739190611e9d565b9050600082600754836106869190611ed1565b6106909190611ed1565b905080935050505090565b6000806106a66110fc565b905061073a818585600160008673ffffffffffffffffffffffffffffffffffffffff1673ffffffffffffffffffffffffffffffffffffffff16815260200190815260200160002060008973ffffffffffffffffffffffffffffffffffffffff1673ffffffffffffffffffffffffffffffffffffffff168152602001908152602001600020546107359190611f2b565b611104565b600191505092915050565b6000600860003373ffffffffffffffffffffffffffffffffffffffff1673ffffffffffffffffffffffffffffffffffffffff1681526020019081526020016000205414156107c8576040517f08c379a00000000000000000000000000000000000000000000000000000000081526004016107bf90611fcd565b60405180910390fd5b6000600960003373ffffffffffffffffffffffffffffffffffffffff1673ffffffffffffffffffffffffffffffffffffffff16815260200190815260200160002054141561084b576040517f08c379a000000000000000000000000000000000000000000000000000000000815260040161084290611fcd565b60405180910390fd5b6000600860003373ffffffffffffffffffffffffffffffffffffffff1673ffffffffffffffffffffffffffffffffffffffff1681526020019081526020016000205490506108976109c4565b506000600860003373ffffffffffffffffffffffffffffffffffffffff1673ffffffffffffffffffffffffffffffffffffffff168152602001908152602001600020819055506000600960003373ffffffffffffffffffffffffffffffffffffffff1673ffffffffffffffffffffffffffffffffffffffff168152602001908152602001600020819055507f000000000000000000000000000000000000000000000000000000000000000073ffffffffffffffffffffffffffffffffffffffff1663a9059cbb33836040518363ffffffff1660e01b815260040161097d929190611fed565b6020604051808303816000875af115801561099c573d6000803e3d6000fd5b505050506040513d601f19601f820116820180604052508101906109c09190612042565b5050565b6000806109cf6105e1565b905043600960003373ffffffffffffffffffffffffffffffffffffffff1673ffffffffffffffffffffffffffffffffffffffff16815260200190815260200160002081905550610a1f33826117b3565b8091505090565b60008060008373ffffffffffffffffffffffffffffffffffffffff1673ffffffffffffffffffffffffffffffffffffffff168152602001908152602001600020549050919050565b610a766110fc565b73ffffffffffffffffffffffffffffffffffffffff16610a94610bb6565b73ffffffffffffffffffffffffffffffffffffffff1614610aea576040517f08c379a0000000000000000000000000000000000000000000000000000000008152600401610ae190611e4e565b60405180910390fd5b610af46000611913565b565b610afe6110fc565b73ffffffffffffffffffffffffffffffffffffffff16610b1c610bb6565b73ffffffffffffffffffffffffffffffffffffffff1614610b72576040517f08c379a0000000000000000000000000000000000000000000000000000000008152600401610b6990611e4e565b60405180910390fd5b80600660006101000a81548173ffffffffffffffffffffffffffffffffffffffff021916908373ffffffffffffffffffffffffffffffffffffffff16021790555050565b6000600560009054906101000a900473ffffffffffffffffffffffffffffffffffffffff16905090565b606060048054610bef90611dd0565b80601f0160208091040260200160405190810160405280929190818152602001828054610c1b90611dd0565b8015610c685780601f10610c3d57610100808354040283529160200191610c68565b820191906000526020600020905b815481529060010190602001808311610c4b57829003601f168201915b5050505050905090565b600080610c7d6110fc565b90506000600160008373ffffffffffffffffffffffffffffffffffffffff1673ffffffffffffffffffffffffffffffffffffffff16815260200190815260200160002060008673ffffffffffffffffffffffffffffffffffffffff1673ffffffffffffffffffffffffffffffffffffffff16815260200190815260200160002054905083811015610d43576040517f08c379a0000000000000000000000000000000000000000000000000000000008152600401610d3a906120e1565b60405180910390fd5b610d508286868403611104565b60019250505092915050565b6000600860003373ffffffffffffffffffffffffffffffffffffffff1673ffffffffffffffffffffffffffffffffffffffff1681526020019081526020016000205414610dde576040517f08c379a0000000000000000000000000000000000000000000000000000000008152600401610dd59061214d565b60405180910390fd5b80600860003373ffffffffffffffffffffffffffffffffffffffff1673ffffffffffffffffffffffffffffffffffffffff1681526020019081526020016000208190555043600960003373ffffffffffffffffffffffffffffffffffffffff1673ffffffffffffffffffffffffffffffffffffffff168152602001908152602001600020819055507f000000000000000000000000000000000000000000000000000000000000000073ffffffffffffffffffffffffffffffffffffffff166323b872dd3330846040518463ffffffff1660e01b8152600401610ec39392919061216d565b6020604051808303816000875af1158015610ee2573d6000803e3d6000fd5b505050506040513d601f19601f82011682018060405250810190610f069190612042565b5050565b600080610f156110fc565b9050610f22818585611532565b600191505092915050565b6000600660009054906101000a900473ffffffffffffffffffffffffffffffffffffffff16905090565b6000600160008473ffffffffffffffffffffffffffffffffffffffff1673ffffffffffffffffffffffffffffffffffffffff16815260200190815260200160002060008373ffffffffffffffffffffffffffffffffffffffff1673ffffffffffffffffffffffffffffffffffffffff16815260200190815260200160002054905092915050565b610fe66110fc565b73ffffffffffffffffffffffffffffffffffffffff16611004610bb6565b73ffffffffffffffffffffffffffffffffffffffff161461105a576040517f08c379a000000000000000000000000000000000000000000000000000000000815260040161105190611e4e565b60405180910390fd5b600073ffffffffffffffffffffffffffffffffffffffff168173ffffffffffffffffffffffffffffffffffffffff1614156110ca576040517f08c379a00000000000000000000000000000000000000000000000000000000081526004016110c190612216565b60405180910390fd5b6110d381611913565b50565b600660009054906101000a900473ffffffffffffffffffffffffffffffffffffffff1681565b600033905090565b600073ffffffffffffffffffffffffffffffffffffffff168373ffffffffffffffffffffffffffffffffffffffff161415611174576040517f08c379a000000000000000000000000000000000000000000000000000000000815260040161116b906122a8565b60405180910390fd5b600073ffffffffffffffffffffffffffffffffffffffff168273ffffffffffffffffffffffffffffffffffffffff1614156111e4576040517f08c379a00000000000000000000000000000000000000000000000000000000081526004016111db9061233a565b60405180910390fd5b80600160008573ffffffffffffffffffffffffffffffffffffffff1673ffffffffffffffffffffffffffffffffffffffff16815260200190815260200160002060008473ffffffffffffffffffffffffffffffffffffffff1673ffffffffffffffffffffffffffffffffffffffff168152602001908152602001600020819055508173ffffffffffffffffffffffffffffffffffffffff168373ffffffffffffffffffffffffffffffffffffffff167f8c5be1e5ebec7d5bd14f71427d1e84f3dd0314c0f7b2291e5b200ac8c7c3b925836040516112c29190611be9565b60405180910390a3505050565b600073ffffffffffffffffffffffffffffffffffffffff168273ffffffffffffffffffffffffffffffffffffffff16141561133f576040517f08c379a0000000000000000000000000000000000000000000000000000000008152600401611336906123cc565b60405180910390fd5b61134b826000836119d9565b60008060008473ffffffffffffffffffffffffffffffffffffffff1673ffffffffffffffffffffffffffffffffffffffff168152602001908152602001600020549050818110156113d1576040517f08c379a00000000000000000000000000000000000000000000000000000000081526004016113c89061245e565b60405180910390fd5b8181036000808573ffffffffffffffffffffffffffffffffffffffff1673ffffffffffffffffffffffffffffffffffffffff1681526020019081526020016000208190555081600260008282546114289190611e9d565b92505081905550600073ffffffffffffffffffffffffffffffffffffffff168373ffffffffffffffffffffffffffffffffffffffff167fddf252ad1be2c89b69c2b068fc378daa952ba7f163c4a11628f55a4df523b3ef8460405161148d9190611be9565b60405180910390a36114a1836000846119de565b505050565b60006114b28484610f57565b90507fffffffffffffffffffffffffffffffffffffffffffffffffffffffffffffffff811461152c578181101561151e576040517f08c379a0000000000000000000000000000000000000000000000000000000008152600401611515906124ca565b60405180910390fd5b61152b8484848403611104565b5b50505050565b600073ffffffffffffffffffffffffffffffffffffffff168373ffffffffffffffffffffffffffffffffffffffff1614156115a2576040517f08c379a00000000000000000000000000000000000000000000000000000000081526004016115999061255c565b60405180910390fd5b600073ffffffffffffffffffffffffffffffffffffffff168273ffffffffffffffffffffffffffffffffffffffff161415611612576040517f08c379a0000000000000000000000000000000000000000000000000000000008152600401611609906125ee565b60405180910390fd5b61161d8383836119d9565b60008060008573ffffffffffffffffffffffffffffffffffffffff1673ffffffffffffffffffffffffffffffffffffffff168152602001908152602001600020549050818110156116a3576040517f08c379a000000000000000000000000000000000000000000000000000000000815260040161169a90612680565b60405180910390fd5b8181036000808673ffffffffffffffffffffffffffffffffffffffff1673ffffffffffffffffffffffffffffffffffffffff16815260200190815260200160002081905550816000808573ffffffffffffffffffffffffffffffffffffffff1673ffffffffffffffffffffffffffffffffffffffff16815260200190815260200160002060008282546117369190611f2b565b925050819055508273ffffffffffffffffffffffffffffffffffffffff168473ffffffffffffffffffffffffffffffffffffffff167fddf252ad1be2c89b69c2b068fc378daa952ba7f163c4a11628f55a4df523b3ef8460405161179a9190611be9565b60405180910390a36117ad8484846119de565b50505050565b600073ffffffffffffffffffffffffffffffffffffffff168273ffffffffffffffffffffffffffffffffffffffff161415611823576040517f08c379a000000000000000000000000000000000000000000000000000000000815260040161181a906126ec565b60405180910390fd5b61182f600083836119d9565b80600260008282546118419190611f2b565b92505081905550806000808473ffffffffffffffffffffffffffffffffffffffff1673ffffffffffffffffffffffffffffffffffffffff16815260200190815260200160002060008282546118969190611f2b565b925050819055508173ffffffffffffffffffffffffffffffffffffffff16600073ffffffffffffffffffffffffffffffffffffffff167fddf252ad1be2c89b69c2b068fc378daa952ba7f163c4a11628f55a4df523b3ef836040516118fb9190611be9565b60405180910390a361190f600083836119de565b5050565b6000600560009054906101000a900473ffffffffffffffffffffffffffffffffffffffff16905081600560006101000a81548173ffffffffffffffffffffffffffffffffffffffff021916908373ffffffffffffffffffffffffffffffffffffffff1602179055508173ffffffffffffffffffffffffffffffffffffffff168173ffffffffffffffffffffffffffffffffffffffff167f8be0079c531659141344cd1fd0a4f28419497f9722a3daafe3b4186f6b6457e060405160405180910390a35050565b505050565b505050565b600081519050919050565b600082825260208201905092915050565b60005b83811015611a1d578082015181840152602081019050611a02565b83811115611a2c576000848401525b50505050565b6000601f19601f8301169050919050565b6000611a4e826119e3565b611a5881856119ee565b9350611a688185602086016119ff565b611a7181611a32565b840191505092915050565b60006020820190508181036000830152611a968184611a43565b905092915050565b600080fd5b600073ffffffffffffffffffffffffffffffffffffffff82169050919050565b6000611ace82611aa3565b9050919050565b611ade81611ac3565b8114611ae957600080fd5b50565b600081359050611afb81611ad5565b92915050565b6000819050919050565b611b1481611b01565b8114611b1f57600080fd5b50565b600081359050611b3181611b0b565b92915050565b60008060408385031215611b4e57611b4d611a9e565b5b6000611b5c85828601611aec565b9250506020611b6d85828601611b22565b9150509250929050565b60008115159050919050565b611b8c81611b77565b82525050565b6000602082019050611ba76000830184611b83565b92915050565b600060208284031215611bc357611bc2611a9e565b5b6000611bd184828501611b22565b91505092915050565b611be381611b01565b82525050565b6000602082019050611bfe6000830184611bda565b92915050565b600063ffffffff82169050919050565b611c1d81611c04565b8114611c2857600080fd5b50565b600081359050611c3a81611c14565b92915050565b60008060408385031215611c5757611c56611a9e565b5b6000611c6585828601611aec565b9250506020611c7685828601611c2b565b9150509250929050565b600080600060608486031215611c9957611c98611a9e565b5b6000611ca786828701611aec565b9350506020611cb886828701611aec565b9250506040611cc986828701611b22565b9150509250925092565b600060ff82169050919050565b611ce981611cd3565b82525050565b6000602082019050611d046000830184611ce0565b92915050565b600060208284031215611d2057611d1f611a9e565b5b6000611d2e84828501611aec565b91505092915050565b611d4081611ac3565b82525050565b6000602082019050611d5b6000830184611d37565b92915050565b60008060408385031215611d7857611d77611a9e565b5b6000611d8685828601611aec565b9250506020611d9785828601611aec565b9150509250929050565b7f4e487b7100000000000000000000000000000000000000000000000000000000600052602260045260246000fd5b60006002820490506001821680611de857607f821691505b60208210811415611dfc57611dfb611da1565b5b50919050565b7f4f776e61626c653a2063616c6c6572206973206e6f7420746865206f776e6572600082015250565b6000611e386020836119ee565b9150611e4382611e02565b602082019050919050565b60006020820190508181036000830152611e6781611e2b565b9050919050565b7f4e487b7100000000000000000000000000000000000000000000000000000000600052601160045260246000fd5b6000611ea882611b01565b9150611eb383611b01565b925082821015611ec657611ec5611e6e565b5b828203905092915050565b6000611edc82611b01565b9150611ee783611b01565b9250817fffffffffffffffffffffffffffffffffffffffffffffffffffffffffffffffff0483118215151615611f2057611f1f611e6e565b5b828202905092915050565b6000611f3682611b01565b9150611f4183611b01565b9250827fffffffffffffffffffffffffffffffffffffffffffffffffffffffffffffffff03821115611f7657611f75611e6e565b5b828201905092915050565b7f6163636f756e74206973206e6f74207374616b696e6700000000000000000000600082015250565b6000611fb76016836119ee565b9150611fc282611f81565b602082019050919050565b60006020820190508181036000830152611fe681611faa565b9050919050565b60006040820190506120026000830185611d37565b61200f6020830184611bda565b9392505050565b61201f81611b77565b811461202a57600080fd5b50565b60008151905061203c81612016565b92915050565b60006020828403121561205857612057611a9e565b5b60006120668482850161202d565b91505092915050565b7f45524332303a2064656372656173656420616c6c6f77616e63652062656c6f7760008201527f207a65726f000000000000000000000000000000000000000000000000000000602082015250565b60006120cb6025836119ee565b91506120d68261206f565b604082019050919050565b600060208201905081810360008301526120fa816120be565b9050919050565b7f6163636f756e7420697320616c7265616479207374616b696e67000000000000600082015250565b6000612137601a836119ee565b915061214282612101565b602082019050919050565b600060208201905081810360008301526121668161212a565b9050919050565b60006060820190506121826000830186611d37565b61218f6020830185611d37565b61219c6040830184611bda565b949350505050565b7f4f776e61626c653a206e6577206f776e657220697320746865207a65726f206160008201527f6464726573730000000000000000000000000000000000000000000000000000602082015250565b60006122006026836119ee565b915061220b826121a4565b604082019050919050565b6000602082019050818103600083015261222f816121f3565b9050919050565b7f45524332303a20617070726f76652066726f6d20746865207a65726f2061646460008201527f7265737300000000000000000000000000000000000000000000000000000000602082015250565b60006122926024836119ee565b915061229d82612236565b604082019050919050565b600060208201905081810360008301526122c181612285565b9050919050565b7f45524332303a20617070726f766520746f20746865207a65726f20616464726560008201527f7373000000000000000000000000000000000000000000000000000000000000602082015250565b60006123246022836119ee565b915061232f826122c8565b604082019050919050565b6000602082019050818103600083015261235381612317565b9050919050565b7f45524332303a206275726e2066726f6d20746865207a65726f2061646472657360008201527f7300000000000000000000000000000000000000000000000000000000000000602082015250565b60006123b66021836119ee565b91506123c18261235a565b604082019050919050565b600060208201905081810360008301526123e5816123a9565b9050919050565b7f45524332303a206275726e20616d6f756e7420657863656564732062616c616e60008201527f6365000000000000000000000000000000000000000000000000000000000000602082015250565b60006124486022836119ee565b9150612453826123ec565b604082019050919050565b600060208201905081810360008301526124778161243b565b9050919050565b7f45524332303a20696e73756666696369656e7420616c6c6f77616e6365000000600082015250565b60006124b4601d836119ee565b91506124bf8261247e565b602082019050919050565b600060208201905081810360008301526124e3816124a7565b9050919050565b7f45524332303a207472616e736665722066726f6d20746865207a65726f20616460008201527f6472657373000000000000000000000000000000000000000000000000000000602082015250565b60006125466025836119ee565b9150612551826124ea565b604082019050919050565b6000602082019050818103600083015261257581612539565b9050919050565b7f45524332303a207472616e7366657220746f20746865207a65726f206164647260008201527f6573730000000000000000000000000000000000000000000000000000000000602082015250565b60006125d86023836119ee565b91506125e38261257c565b604082019050919050565b60006020820190508181036000830152612607816125cb565b9050919050565b7f45524332303a207472616e7366657220616d6f756e742065786365656473206260008201527f616c616e63650000000000000000000000000000000000000000000000000000602082015250565b600061266a6026836119ee565b91506126758261260e565b604082019050919050565b600060208201905081810360008301526126998161265d565b9050919050565b7f45524332303a206d696e7420746f20746865207a65726f206164647265737300600082015250565b60006126d6601f836119ee565b91506126e1826126a0565b602082019050919050565b60006020820190508181036000830152612705816126c9565b905091905056fea26469706673582212208dd4be736858a2e7e822afa830e72629bcef4a2b1fccb55ccea347a8e4aac36864736f6c634300080c0033",
  "immutableReferences": {
    "2888": [
      {
        "length": 32,
        "start": 2340
      },
      {
        "length": 32,
        "start": 3688
      }
    ]
  },
  "source": "// SPDX-License-Identifier: MIT\npragma solidity ^0.8.0;\n\nimport \"../AbstractContracts/Staking.sol\";\n\ncontract cGEMToken is StakingToken {\n    constructor(address tokenContractAddress, address craftingContractAddress)\n        StakingToken(\n            tokenContractAddress,\n            craftingContractAddress,\n            \"cRuin\",\n            \"cGEM\"\n        )\n    {}\n}\n",
  "sourcePath": "/home/hayek/proj/crafterquest/contracts/StakingContracts/cRUIToken.sol",
  "compiler": {
    "name": "solc",
    "version": "0.8.12+commit.f00d7308.Emscripten.clang"
  },
  "schemaVersion": "3.4.5",
  "updatedAt": "2022-03-13T03:46:14.906Z",
  "networkType": "ethereum",
  "devdoc": {
    "kind": "dev",
    "methods": {
      "allowance(address,address)": {
        "details": "See {IERC20-allowance}."
      },
      "approve(address,uint256)": {
        "details": "See {IERC20-approve}. NOTE: If `amount` is the maximum `uint256`, the allowance is not updated on `transferFrom`. This is semantically equivalent to an infinite approval. Requirements: - `spender` cannot be the zero address."
      },
      "balanceOf(address)": {
        "details": "See {IERC20-balanceOf}."
      },
      "decimals()": {
        "details": "Returns the number of decimals used to get its user representation. For example, if `decimals` equals `2`, a balance of `505` tokens should be displayed to a user as `5.05` (`505 / 10 ** 2`). Tokens usually opt for a value of 18, imitating the relationship between Ether and Wei. This is the value {ERC20} uses, unless this function is overridden; NOTE: This information is only used for _display_ purposes: it in no way affects any of the arithmetic of the contract, including {IERC20-balanceOf} and {IERC20-transfer}."
      },
      "decreaseAllowance(address,uint256)": {
        "details": "Atomically decreases the allowance granted to `spender` by the caller. This is an alternative to {approve} that can be used as a mitigation for problems described in {IERC20-approve}. Emits an {Approval} event indicating the updated allowance. Requirements: - `spender` cannot be the zero address. - `spender` must have allowance for the caller of at least `subtractedValue`."
      },
      "increaseAllowance(address,uint256)": {
        "details": "Atomically increases the allowance granted to `spender` by the caller. This is an alternative to {approve} that can be used as a mitigation for problems described in {IERC20-approve}. Emits an {Approval} event indicating the updated allowance. Requirements: - `spender` cannot be the zero address."
      },
      "name()": {
        "details": "Returns the name of the token."
      },
      "owner()": {
        "details": "Returns the address of the current owner."
      },
      "renounceOwnership()": {
        "details": "Leaves the contract without owner. It will not be possible to call `onlyOwner` functions anymore. Can only be called by the current owner. NOTE: Renouncing ownership will leave the contract without an owner, thereby removing any functionality that is only available to the owner."
      },
      "symbol()": {
        "details": "Returns the symbol of the token, usually a shorter version of the name."
      },
      "totalSupply()": {
        "details": "See {IERC20-totalSupply}."
      },
      "transfer(address,uint256)": {
        "details": "See {IERC20-transfer}. Requirements: - `to` cannot be the zero address. - the caller must have a balance of at least `amount`."
      },
      "transferFrom(address,address,uint256)": {
        "details": "See {IERC20-transferFrom}. Emits an {Approval} event indicating the updated allowance. This is not required by the EIP. See the note at the beginning of {ERC20}. NOTE: Does not update the allowance if the current allowance is the maximum `uint256`. Requirements: - `from` and `to` cannot be the zero address. - `from` must have a balance of at least `amount`. - the caller must have allowance for ``from``'s tokens of at least `amount`."
      },
      "transferOwnership(address)": {
        "details": "Transfers ownership of the contract to a new account (`newOwner`). Can only be called by the current owner."
      }
    },
    "version": 1
  },
  "userdoc": {
    "kind": "user",
    "methods": {},
    "version": 1
  }
}