{
  "contractName": "Crafterverse",
  "abi": [
    {
      "inputs": [],
      "stateMutability": "nonpayable",
      "type": "constructor"
    },
    {
      "anonymous": false,
      "inputs": [
        {
          "indexed": true,
          "internalType": "address",
          "name": "owner",
          "type": "address"
        },
        {
          "indexed": true,
          "internalType": "address",
          "name": "approved",
          "type": "address"
        },
        {
          "indexed": true,
          "internalType": "uint256",
          "name": "tokenId",
          "type": "uint256"
        }
      ],
      "name": "Approval",
      "type": "event"
    },
    {
      "anonymous": false,
      "inputs": [
        {
          "indexed": true,
          "internalType": "address",
          "name": "owner",
          "type": "address"
        },
        {
          "indexed": true,
          "internalType": "address",
          "name": "operator",
          "type": "address"
        },
        {
          "indexed": false,
          "internalType": "bool",
          "name": "approved",
          "type": "bool"
        }
      ],
      "name": "ApprovalForAll",
      "type": "event"
    },
    {
      "anonymous": false,
      "inputs": [
        {
          "indexed": true,
          "internalType": "address",
          "name": "previousOwner",
          "type": "address"
        },
        {
          "indexed": true,
          "internalType": "address",
          "name": "newOwner",
          "type": "address"
        }
      ],
      "name": "OwnershipTransferred",
      "type": "event"
    },
    {
      "anonymous": false,
      "inputs": [
        {
          "indexed": true,
          "internalType": "address",
          "name": "from",
          "type": "address"
        },
        {
          "indexed": true,
          "internalType": "address",
          "name": "to",
          "type": "address"
        },
        {
          "indexed": true,
          "internalType": "uint256",
          "name": "tokenId",
          "type": "uint256"
        }
      ],
      "name": "Transfer",
      "type": "event"
    },
    {
      "inputs": [
        {
          "internalType": "address",
          "name": "to",
          "type": "address"
        },
        {
          "internalType": "uint256",
          "name": "tokenId",
          "type": "uint256"
        }
      ],
      "name": "approve",
      "outputs": [],
      "stateMutability": "nonpayable",
      "type": "function"
    },
    {
      "inputs": [
        {
          "internalType": "address",
          "name": "owner",
          "type": "address"
        }
      ],
      "name": "balanceOf",
      "outputs": [
        {
          "internalType": "uint256",
          "name": "",
          "type": "uint256"
        }
      ],
      "stateMutability": "view",
      "type": "function",
      "constant": true
    },
    {
      "inputs": [
        {
          "internalType": "uint256",
          "name": "tokenId",
          "type": "uint256"
        }
      ],
      "name": "getApproved",
      "outputs": [
        {
          "internalType": "address",
          "name": "",
          "type": "address"
        }
      ],
      "stateMutability": "view",
      "type": "function",
      "constant": true
    },
    {
      "inputs": [
        {
          "internalType": "address",
          "name": "owner",
          "type": "address"
        },
        {
          "internalType": "address",
          "name": "operator",
          "type": "address"
        }
      ],
      "name": "isApprovedForAll",
      "outputs": [
        {
          "internalType": "bool",
          "name": "",
          "type": "bool"
        }
      ],
      "stateMutability": "view",
      "type": "function",
      "constant": true
    },
    {
      "inputs": [
        {
          "internalType": "uint256",
          "name": "",
          "type": "uint256"
        }
      ],
      "name": "items",
      "outputs": [
        {
          "internalType": "uint256",
          "name": "id",
          "type": "uint256"
        },
        {
          "internalType": "uint8",
          "name": "rank",
          "type": "uint8"
        },
        {
          "internalType": "address",
          "name": "createdBy",
          "type": "address"
        }
      ],
      "stateMutability": "view",
      "type": "function",
      "constant": true
    },
    {
      "inputs": [],
      "name": "name",
      "outputs": [
        {
          "internalType": "string",
          "name": "",
          "type": "string"
        }
      ],
      "stateMutability": "view",
      "type": "function",
      "constant": true
    },
    {
      "inputs": [],
      "name": "owner",
      "outputs": [
        {
          "internalType": "address",
          "name": "",
          "type": "address"
        }
      ],
      "stateMutability": "view",
      "type": "function",
      "constant": true
    },
    {
      "inputs": [
        {
          "internalType": "uint256",
          "name": "tokenId",
          "type": "uint256"
        }
      ],
      "name": "ownerOf",
      "outputs": [
        {
          "internalType": "address",
          "name": "",
          "type": "address"
        }
      ],
      "stateMutability": "view",
      "type": "function",
      "constant": true
    },
    {
      "inputs": [
        {
          "internalType": "uint256",
          "name": "",
          "type": "uint256"
        }
      ],
      "name": "recipes",
      "outputs": [
        {
          "internalType": "string",
          "name": "name",
          "type": "string"
        },
        {
          "internalType": "contract StakingERC20",
          "name": "ingredient",
          "type": "address"
        },
        {
          "internalType": "uint32",
          "name": "amount",
          "type": "uint32"
        },
        {
          "internalType": "uint32",
          "name": "skill",
          "type": "uint32"
        },
        {
          "internalType": "bool",
          "name": "active",
          "type": "bool"
        }
      ],
      "stateMutability": "view",
      "type": "function",
      "constant": true
    },
    {
      "inputs": [],
      "name": "renounceOwnership",
      "outputs": [],
      "stateMutability": "nonpayable",
      "type": "function"
    },
    {
      "inputs": [
        {
          "internalType": "address",
          "name": "from",
          "type": "address"
        },
        {
          "internalType": "address",
          "name": "to",
          "type": "address"
        },
        {
          "internalType": "uint256",
          "name": "tokenId",
          "type": "uint256"
        }
      ],
      "name": "safeTransferFrom",
      "outputs": [],
      "stateMutability": "nonpayable",
      "type": "function"
    },
    {
      "inputs": [
        {
          "internalType": "address",
          "name": "from",
          "type": "address"
        },
        {
          "internalType": "address",
          "name": "to",
          "type": "address"
        },
        {
          "internalType": "uint256",
          "name": "tokenId",
          "type": "uint256"
        },
        {
          "internalType": "bytes",
          "name": "_data",
          "type": "bytes"
        }
      ],
      "name": "safeTransferFrom",
      "outputs": [],
      "stateMutability": "nonpayable",
      "type": "function"
    },
    {
      "inputs": [
        {
          "internalType": "address",
          "name": "operator",
          "type": "address"
        },
        {
          "internalType": "bool",
          "name": "approved",
          "type": "bool"
        }
      ],
      "name": "setApprovalForAll",
      "outputs": [],
      "stateMutability": "nonpayable",
      "type": "function"
    },
    {
      "inputs": [],
      "name": "symbol",
      "outputs": [
        {
          "internalType": "string",
          "name": "",
          "type": "string"
        }
      ],
      "stateMutability": "view",
      "type": "function",
      "constant": true
    },
    {
      "inputs": [
        {
          "internalType": "uint256",
          "name": "index",
          "type": "uint256"
        }
      ],
      "name": "tokenByIndex",
      "outputs": [
        {
          "internalType": "uint256",
          "name": "",
          "type": "uint256"
        }
      ],
      "stateMutability": "view",
      "type": "function",
      "constant": true
    },
    {
      "inputs": [
        {
          "internalType": "address",
          "name": "owner",
          "type": "address"
        },
        {
          "internalType": "uint256",
          "name": "index",
          "type": "uint256"
        }
      ],
      "name": "tokenOfOwnerByIndex",
      "outputs": [
        {
          "internalType": "uint256",
          "name": "",
          "type": "uint256"
        }
      ],
      "stateMutability": "view",
      "type": "function",
      "constant": true
    },
    {
      "inputs": [],
      "name": "totalSupply",
      "outputs": [
        {
          "internalType": "uint256",
          "name": "",
          "type": "uint256"
        }
      ],
      "stateMutability": "view",
      "type": "function",
      "constant": true
    },
    {
      "inputs": [
        {
          "internalType": "address",
          "name": "from",
          "type": "address"
        },
        {
          "internalType": "address",
          "name": "to",
          "type": "address"
        },
        {
          "internalType": "uint256",
          "name": "tokenId",
          "type": "uint256"
        }
      ],
      "name": "transferFrom",
      "outputs": [],
      "stateMutability": "nonpayable",
      "type": "function"
    },
    {
      "inputs": [
        {
          "internalType": "address",
          "name": "newOwner",
          "type": "address"
        }
      ],
      "name": "transferOwnership",
      "outputs": [],
      "stateMutability": "nonpayable",
      "type": "function"
    },
    {
      "inputs": [
        {
          "internalType": "string",
          "name": "name",
          "type": "string"
        },
        {
          "internalType": "address",
          "name": "ingredient",
          "type": "address"
        },
        {
          "internalType": "uint32",
          "name": "amounts",
          "type": "uint32"
        },
        {
          "internalType": "uint32",
          "name": "skill",
          "type": "uint32"
        }
      ],
      "name": "addRecipe",
      "outputs": [
        {
          "internalType": "uint256",
          "name": "",
          "type": "uint256"
        }
      ],
      "stateMutability": "nonpayable",
      "type": "function"
    },
    {
      "inputs": [
        {
          "internalType": "uint256",
          "name": "id",
          "type": "uint256"
        },
        {
          "internalType": "uint8",
          "name": "rank",
          "type": "uint8"
        }
      ],
      "name": "craftItem",
      "outputs": [],
      "stateMutability": "nonpayable",
      "type": "function"
    },
    {
      "inputs": [],
      "name": "totalRecipes",
      "outputs": [
        {
          "internalType": "uint256",
          "name": "",
          "type": "uint256"
        }
      ],
      "stateMutability": "view",
      "type": "function",
      "constant": true
    },
    {
      "inputs": [],
      "name": "totalItems",
      "outputs": [
        {
          "internalType": "uint256",
          "name": "",
          "type": "uint256"
        }
      ],
      "stateMutability": "view",
      "type": "function",
      "constant": true
    },
    {
      "inputs": [
        {
          "internalType": "uint256",
          "name": "tokenId",
          "type": "uint256"
        }
      ],
      "name": "tokenURI",
      "outputs": [
        {
          "internalType": "string",
          "name": "",
          "type": "string"
        }
      ],
      "stateMutability": "view",
      "type": "function",
      "constant": true
    },
    {
      "inputs": [
        {
          "internalType": "bytes4",
          "name": "interfaceId",
          "type": "bytes4"
        }
      ],
      "name": "supportsInterface",
      "outputs": [
        {
          "internalType": "bool",
          "name": "",
          "type": "bool"
        }
      ],
      "stateMutability": "view",
      "type": "function",
      "constant": true
    }
  ],
  "bytecode": "0x60806040523480156200001157600080fd5b506040518060400160405280600c81526020017f43726166746572766572736500000000000000000000000000000000000000008152506040518060400160405280600281526020017f43560000000000000000000000000000000000000000000000000000000000008152506200009e62000092620000d860201b60201c565b620000e060201b60201c565b8160019080519060200190620000b6929190620001a4565b508060029080519060200190620000cf929190620001a4565b505050620002b9565b600033905090565b60008060009054906101000a900473ffffffffffffffffffffffffffffffffffffffff169050816000806101000a81548173ffffffffffffffffffffffffffffffffffffffff021916908373ffffffffffffffffffffffffffffffffffffffff1602179055508173ffffffffffffffffffffffffffffffffffffffff168173ffffffffffffffffffffffffffffffffffffffff167f8be0079c531659141344cd1fd0a4f28419497f9722a3daafe3b4186f6b6457e060405160405180910390a35050565b828054620001b29062000283565b90600052602060002090601f016020900481019282620001d6576000855562000222565b82601f10620001f157805160ff191683800117855562000222565b8280016001018555821562000222579182015b828111156200022157825182559160200191906001019062000204565b5b50905062000231919062000235565b5090565b5b808211156200025057600081600090555060010162000236565b5090565b7f4e487b7100000000000000000000000000000000000000000000000000000000600052602260045260246000fd5b600060028204905060018216806200029c57607f821691505b60208210811415620002b357620002b262000254565b5b50919050565b61406680620002c96000396000f3fe608060405234801561001057600080fd5b50600436106101735760003560e01c80636352211e116100de578063b88d4fde11610097578063d09ef45c11610071578063d09ef45c14610476578063d84d1da714610494578063e985e9c5146104c4578063f2fde38b146104f457610173565b8063b88d4fde146103f8578063bfb231d214610414578063c87b56dd1461044657610173565b80636352211e1461033657806370a0823114610366578063715018a6146103965780638da5cb5b146103a057806395d89b41146103be578063a22cb465146103dc57610173565b806323b872dd1161013057806323b872dd1461024c5780632799276d146102685780632f745c591461028657806342842e0e146102b6578063443c227c146102d25780634f6ccce71461030657610173565b806301ffc9a71461017857806306fdde03146101a8578063081812fc146101c6578063095ea7b3146101f65780630a3f334e1461021257806318160ddd1461022e575b600080fd5b610192600480360381019061018d919061294c565b610510565b60405161019f9190612994565b60405180910390f35b6101b0610522565b6040516101bd9190612a48565b60405180910390f35b6101e060048036038101906101db9190612aa0565b6105b4565b6040516101ed9190612b0e565b60405180910390f35b610210600480360381019061020b9190612b55565b610639565b005b61022c60048036038101906102279190612bce565b610751565b005b6102366109b4565b6040516102439190612c1d565b60405180910390f35b61026660048036038101906102619190612c38565b6109c1565b005b610270610a21565b60405161027d9190612c1d565b60405180910390f35b6102a0600480360381019061029b9190612b55565b610a2e565b6040516102ad9190612c1d565b60405180910390f35b6102d060048036038101906102cb9190612c38565b610ad3565b005b6102ec60048036038101906102e79190612aa0565b610af3565b6040516102fd959493929190612d09565b60405180910390f35b610320600480360381019061031b9190612aa0565b610c0e565b60405161032d9190612c1d565b60405180910390f35b610350600480360381019061034b9190612aa0565b610c7f565b60405161035d9190612b0e565b60405180910390f35b610380600480360381019061037b9190612d63565b610d31565b60405161038d9190612c1d565b60405180910390f35b61039e610de9565b005b6103a8610e71565b6040516103b59190612b0e565b60405180910390f35b6103c6610e9a565b6040516103d39190612a48565b60405180910390f35b6103f660048036038101906103f19190612dbc565b610f2c565b005b610412600480360381019061040d9190612f31565b610f42565b005b61042e60048036038101906104299190612aa0565b610fa4565b60405161043d93929190612fc3565b60405180910390f35b610460600480360381019061045b9190612aa0565b61100b565b60405161046d9190612a48565b60405180910390f35b61047e61101d565b60405161048b9190612c1d565b60405180910390f35b6104ae60048036038101906104a991906130c7565b61102a565b6040516104bb9190612c1d565b60405180910390f35b6104de60048036038101906104d9919061314a565b61120f565b6040516104eb9190612994565b60405180910390f35b61050e60048036038101906105099190612d63565b6112a3565b005b600061051b8261139b565b9050919050565b606060018054610531906131b9565b80601f016020809104026020016040519081016040528092919081815260200182805461055d906131b9565b80156105aa5780601f1061057f576101008083540402835291602001916105aa565b820191906000526020600020905b81548152906001019060200180831161058d57829003601f168201915b5050505050905090565b60006105bf82611415565b6105fe576040517f08c379a00000000000000000000000000000000000000000000000000000000081526004016105f59061325d565b60405180910390fd5b6005600083815260200190815260200160002060009054906101000a900473ffffffffffffffffffffffffffffffffffffffff169050919050565b600061064482610c7f565b90508073ffffffffffffffffffffffffffffffffffffffff168373ffffffffffffffffffffffffffffffffffffffff1614156106b5576040517f08c379a00000000000000000000000000000000000000000000000000000000081526004016106ac906132ef565b60405180910390fd5b8073ffffffffffffffffffffffffffffffffffffffff166106d4611481565b73ffffffffffffffffffffffffffffffffffffffff1614806107035750610702816106fd611481565b61120f565b5b610742576040517f08c379a000000000000000000000000000000000000000000000000000000000815260040161073990613381565b60405180910390fd5b61074c8383611489565b505050565b60008160ff1611610797576040517f08c379a000000000000000000000000000000000000000000000000000000000815260040161078e906133ed565b60405180910390fd5b60008160ff16600c84815481106107b1576107b061340d565b5b906000526020600020906002020160010160149054906101000a900463ffffffff166107dd919061346b565b9050600c83815481106107f3576107f261340d565b5b906000526020600020906002020160010160009054906101000a900473ffffffffffffffffffffffffffffffffffffffff1673ffffffffffffffffffffffffffffffffffffffff1663235c8fa733836040518363ffffffff1660e01b815260040161085f9291906134a9565b600060405180830381600087803b15801561087957600080fd5b505af115801561088d573d6000803e3d6000fd5b50505050610899612803565b8381600001818152505082816020019060ff16908160ff168152505033816040019073ffffffffffffffffffffffffffffffffffffffff16908173ffffffffffffffffffffffffffffffffffffffff1681525050600d8190806001815401808255809150506001900390600052602060002090600202016000909190919091506000820151816000015560208201518160010160006101000a81548160ff021916908360ff16021790555060408201518160010160016101000a81548173ffffffffffffffffffffffffffffffffffffffff021916908373ffffffffffffffffffffffffffffffffffffffff160217905550505060006001600d805490506109a191906134d2565b90506109ad3382611542565b5050505050565b6000600980549050905090565b6109d26109cc611481565b82611560565b610a11576040517f08c379a0000000000000000000000000000000000000000000000000000000008152600401610a0890613578565b60405180910390fd5b610a1c83838361163e565b505050565b6000600d80549050905090565b6000610a3983610d31565b8210610a7a576040517f08c379a0000000000000000000000000000000000000000000000000000000008152600401610a719061360a565b60405180910390fd5b600760008473ffffffffffffffffffffffffffffffffffffffff1673ffffffffffffffffffffffffffffffffffffffff168152602001908152602001600020600083815260200190815260200160002054905092915050565b610aee83838360405180602001604052806000815250610f42565b505050565b600c8181548110610b0357600080fd5b9060005260206000209060020201600091509050806000018054610b26906131b9565b80601f0160208091040260200160405190810160405280929190818152602001828054610b52906131b9565b8015610b9f5780601f10610b7457610100808354040283529160200191610b9f565b820191906000526020600020905b815481529060010190602001808311610b8257829003601f168201915b5050505050908060010160009054906101000a900473ffffffffffffffffffffffffffffffffffffffff16908060010160149054906101000a900463ffffffff16908060010160189054906101000a900463ffffffff169080600101601c9054906101000a900460ff16905085565b6000610c186109b4565b8210610c59576040517f08c379a0000000000000000000000000000000000000000000000000000000008152600401610c509061369c565b60405180910390fd5b60098281548110610c6d57610c6c61340d565b5b90600052602060002001549050919050565b6000806003600084815260200190815260200160002060009054906101000a900473ffffffffffffffffffffffffffffffffffffffff169050600073ffffffffffffffffffffffffffffffffffffffff168173ffffffffffffffffffffffffffffffffffffffff161415610d28576040517f08c379a0000000000000000000000000000000000000000000000000000000008152600401610d1f9061372e565b60405180910390fd5b80915050919050565b60008073ffffffffffffffffffffffffffffffffffffffff168273ffffffffffffffffffffffffffffffffffffffff161415610da2576040517f08c379a0000000000000000000000000000000000000000000000000000000008152600401610d99906137c0565b60405180910390fd5b600460008373ffffffffffffffffffffffffffffffffffffffff1673ffffffffffffffffffffffffffffffffffffffff168152602001908152602001600020549050919050565b610df1611481565b73ffffffffffffffffffffffffffffffffffffffff16610e0f610e71565b73ffffffffffffffffffffffffffffffffffffffff1614610e65576040517f08c379a0000000000000000000000000000000000000000000000000000000008152600401610e5c9061382c565b60405180910390fd5b610e6f60006118a5565b565b60008060009054906101000a900473ffffffffffffffffffffffffffffffffffffffff16905090565b606060028054610ea9906131b9565b80601f0160208091040260200160405190810160405280929190818152602001828054610ed5906131b9565b8015610f225780601f10610ef757610100808354040283529160200191610f22565b820191906000526020600020905b815481529060010190602001808311610f0557829003601f168201915b5050505050905090565b610f3e610f37611481565b8383611969565b5050565b610f53610f4d611481565b83611560565b610f92576040517f08c379a0000000000000000000000000000000000000000000000000000000008152600401610f8990613578565b60405180910390fd5b610f9e84848484611ad6565b50505050565b600d8181548110610fb457600080fd5b90600052602060002090600202016000915090508060000154908060010160009054906101000a900460ff16908060010160019054906101000a900473ffffffffffffffffffffffffffffffffffffffff16905083565b606061101682611b32565b9050919050565b6000600c80549050905090565b6000611034611481565b73ffffffffffffffffffffffffffffffffffffffff16611052610e71565b73ffffffffffffffffffffffffffffffffffffffff16146110a8576040517f08c379a000000000000000000000000000000000000000000000000000000000815260040161109f9061382c565b60405180910390fd5b600c6040518060a001604052808781526020018673ffffffffffffffffffffffffffffffffffffffff1681526020018563ffffffff1681526020018463ffffffff168152602001600115158152509080600181540180825580915050600190039060005260206000209060020201600090919091909150600082015181600001908051906020019061113b92919061283d565b5060208201518160010160006101000a81548173ffffffffffffffffffffffffffffffffffffffff021916908373ffffffffffffffffffffffffffffffffffffffff16021790555060408201518160010160146101000a81548163ffffffff021916908363ffffffff16021790555060608201518160010160186101000a81548163ffffffff021916908363ffffffff160217905550608082015181600101601c6101000a81548160ff02191690831515021790555050506001600c8054905061120591906134d2565b9050949350505050565b6000600660008473ffffffffffffffffffffffffffffffffffffffff1673ffffffffffffffffffffffffffffffffffffffff16815260200190815260200160002060008373ffffffffffffffffffffffffffffffffffffffff1673ffffffffffffffffffffffffffffffffffffffff16815260200190815260200160002060009054906101000a900460ff16905092915050565b6112ab611481565b73ffffffffffffffffffffffffffffffffffffffff166112c9610e71565b73ffffffffffffffffffffffffffffffffffffffff161461131f576040517f08c379a00000000000000000000000000000000000000000000000000000000081526004016113169061382c565b60405180910390fd5b600073ffffffffffffffffffffffffffffffffffffffff168173ffffffffffffffffffffffffffffffffffffffff16141561138f576040517f08c379a0000000000000000000000000000000000000000000000000000000008152600401611386906138be565b60405180910390fd5b611398816118a5565b50565b60007f780e9d63000000000000000000000000000000000000000000000000000000007bffffffffffffffffffffffffffffffffffffffffffffffffffffffff1916827bffffffffffffffffffffffffffffffffffffffffffffffffffffffff1916148061140e575061140d82611c84565b5b9050919050565b60008073ffffffffffffffffffffffffffffffffffffffff166003600084815260200190815260200160002060009054906101000a900473ffffffffffffffffffffffffffffffffffffffff1673ffffffffffffffffffffffffffffffffffffffff1614159050919050565b600033905090565b816005600083815260200190815260200160002060006101000a81548173ffffffffffffffffffffffffffffffffffffffff021916908373ffffffffffffffffffffffffffffffffffffffff160217905550808273ffffffffffffffffffffffffffffffffffffffff166114fc83610c7f565b73ffffffffffffffffffffffffffffffffffffffff167f8c5be1e5ebec7d5bd14f71427d1e84f3dd0314c0f7b2291e5b200ac8c7c3b92560405160405180910390a45050565b61155c828260405180602001604052806000815250611d66565b5050565b600061156b82611415565b6115aa576040517f08c379a00000000000000000000000000000000000000000000000000000000081526004016115a190613950565b60405180910390fd5b60006115b583610c7f565b90508073ffffffffffffffffffffffffffffffffffffffff168473ffffffffffffffffffffffffffffffffffffffff16148061162457508373ffffffffffffffffffffffffffffffffffffffff1661160c846105b4565b73ffffffffffffffffffffffffffffffffffffffff16145b806116355750611634818561120f565b5b91505092915050565b8273ffffffffffffffffffffffffffffffffffffffff1661165e82610c7f565b73ffffffffffffffffffffffffffffffffffffffff16146116b4576040517f08c379a00000000000000000000000000000000000000000000000000000000081526004016116ab906139e2565b60405180910390fd5b600073ffffffffffffffffffffffffffffffffffffffff168273ffffffffffffffffffffffffffffffffffffffff161415611724576040517f08c379a000000000000000000000000000000000000000000000000000000000815260040161171b90613a74565b60405180910390fd5b61172f838383611dc1565b61173a600082611489565b6001600460008573ffffffffffffffffffffffffffffffffffffffff1673ffffffffffffffffffffffffffffffffffffffff168152602001908152602001600020600082825461178a91906134d2565b925050819055506001600460008473ffffffffffffffffffffffffffffffffffffffff1673ffffffffffffffffffffffffffffffffffffffff16815260200190815260200160002060008282546117e19190613a94565b92505081905550816003600083815260200190815260200160002060006101000a81548173ffffffffffffffffffffffffffffffffffffffff021916908373ffffffffffffffffffffffffffffffffffffffff160217905550808273ffffffffffffffffffffffffffffffffffffffff168473ffffffffffffffffffffffffffffffffffffffff167fddf252ad1be2c89b69c2b068fc378daa952ba7f163c4a11628f55a4df523b3ef60405160405180910390a46118a0838383611dd1565b505050565b60008060009054906101000a900473ffffffffffffffffffffffffffffffffffffffff169050816000806101000a81548173ffffffffffffffffffffffffffffffffffffffff021916908373ffffffffffffffffffffffffffffffffffffffff1602179055508173ffffffffffffffffffffffffffffffffffffffff168173ffffffffffffffffffffffffffffffffffffffff167f8be0079c531659141344cd1fd0a4f28419497f9722a3daafe3b4186f6b6457e060405160405180910390a35050565b8173ffffffffffffffffffffffffffffffffffffffff168373ffffffffffffffffffffffffffffffffffffffff1614156119d8576040517f08c379a00000000000000000000000000000000000000000000000000000000081526004016119cf90613b36565b60405180910390fd5b80600660008573ffffffffffffffffffffffffffffffffffffffff1673ffffffffffffffffffffffffffffffffffffffff16815260200190815260200160002060008473ffffffffffffffffffffffffffffffffffffffff1673ffffffffffffffffffffffffffffffffffffffff16815260200190815260200160002060006101000a81548160ff0219169083151502179055508173ffffffffffffffffffffffffffffffffffffffff168373ffffffffffffffffffffffffffffffffffffffff167f17307eab39ab6107e8899845ad3d59bd9653f200f220920489ca2b5937696c3183604051611ac99190612994565b60405180910390a3505050565b611ae184848461163e565b611aed84848484611dd6565b611b2c576040517f08c379a0000000000000000000000000000000000000000000000000000000008152600401611b2390613bc8565b60405180910390fd5b50505050565b6060611b3d82611415565b611b7c576040517f08c379a0000000000000000000000000000000000000000000000000000000008152600401611b7390613c5a565b60405180910390fd5b6000600b60008481526020019081526020016000208054611b9c906131b9565b80601f0160208091040260200160405190810160405280929190818152602001828054611bc8906131b9565b8015611c155780601f10611bea57610100808354040283529160200191611c15565b820191906000526020600020905b815481529060010190602001808311611bf857829003601f168201915b505050505090506000611c26611f5e565b9050600081511415611c3c578192505050611c7f565b600082511115611c71578082604051602001611c59929190613cb6565b60405160208183030381529060405292505050611c7f565b611c7a84611f75565b925050505b919050565b60007f80ac58cd000000000000000000000000000000000000000000000000000000007bffffffffffffffffffffffffffffffffffffffffffffffffffffffff1916827bffffffffffffffffffffffffffffffffffffffffffffffffffffffff19161480611d4f57507f5b5e139f000000000000000000000000000000000000000000000000000000007bffffffffffffffffffffffffffffffffffffffffffffffffffffffff1916827bffffffffffffffffffffffffffffffffffffffffffffffffffffffff1916145b80611d5f5750611d5e8261201c565b5b9050919050565b611d708383612086565b611d7d6000848484611dd6565b611dbc576040517f08c379a0000000000000000000000000000000000000000000000000000000008152600401611db390613bc8565b60405180910390fd5b505050565b611dcc838383612260565b505050565b505050565b6000611df78473ffffffffffffffffffffffffffffffffffffffff16612374565b15611f51578373ffffffffffffffffffffffffffffffffffffffff1663150b7a02611e20611481565b8786866040518563ffffffff1660e01b8152600401611e429493929190613d2f565b6020604051808303816000875af1925050508015611e7e57506040513d601f19601f82011682018060405250810190611e7b9190613d90565b60015b611f01573d8060008114611eae576040519150601f19603f3d011682016040523d82523d6000602084013e611eb3565b606091505b50600081511415611ef9576040517f08c379a0000000000000000000000000000000000000000000000000000000008152600401611ef090613bc8565b60405180910390fd5b805181602001fd5b63150b7a0260e01b7bffffffffffffffffffffffffffffffffffffffffffffffffffffffff1916817bffffffffffffffffffffffffffffffffffffffffffffffffffffffff191614915050611f56565b600190505b949350505050565b606060405180602001604052806000815250905090565b6060611f8082611415565b611fbf576040517f08c379a0000000000000000000000000000000000000000000000000000000008152600401611fb690613e2f565b60405180910390fd5b6000611fc9611f5e565b90506000815111611fe95760405180602001604052806000815250612014565b80611ff384612397565b604051602001612004929190613cb6565b6040516020818303038152906040525b915050919050565b60007f01ffc9a7000000000000000000000000000000000000000000000000000000007bffffffffffffffffffffffffffffffffffffffffffffffffffffffff1916827bffffffffffffffffffffffffffffffffffffffffffffffffffffffff1916149050919050565b600073ffffffffffffffffffffffffffffffffffffffff168273ffffffffffffffffffffffffffffffffffffffff1614156120f6576040517f08c379a00000000000000000000000000000000000000000000000000000000081526004016120ed90613e9b565b60405180910390fd5b6120ff81611415565b1561213f576040517f08c379a000000000000000000000000000000000000000000000000000000000815260040161213690613f07565b60405180910390fd5b61214b60008383611dc1565b6001600460008473ffffffffffffffffffffffffffffffffffffffff1673ffffffffffffffffffffffffffffffffffffffff168152602001908152602001600020600082825461219b9190613a94565b92505081905550816003600083815260200190815260200160002060006101000a81548173ffffffffffffffffffffffffffffffffffffffff021916908373ffffffffffffffffffffffffffffffffffffffff160217905550808273ffffffffffffffffffffffffffffffffffffffff16600073ffffffffffffffffffffffffffffffffffffffff167fddf252ad1be2c89b69c2b068fc378daa952ba7f163c4a11628f55a4df523b3ef60405160405180910390a461225c60008383611dd1565b5050565b61226b8383836124f8565b600073ffffffffffffffffffffffffffffffffffffffff168373ffffffffffffffffffffffffffffffffffffffff1614156122ae576122a9816124fd565b6122ed565b8173ffffffffffffffffffffffffffffffffffffffff168373ffffffffffffffffffffffffffffffffffffffff16146122ec576122eb8382612546565b5b5b600073ffffffffffffffffffffffffffffffffffffffff168273ffffffffffffffffffffffffffffffffffffffff1614156123305761232b816126b3565b61236f565b8273ffffffffffffffffffffffffffffffffffffffff168273ffffffffffffffffffffffffffffffffffffffff161461236e5761236d8282612784565b5b5b505050565b6000808273ffffffffffffffffffffffffffffffffffffffff163b119050919050565b606060008214156123df576040518060400160405280600181526020017f300000000000000000000000000000000000000000000000000000000000000081525090506124f3565b600082905060005b600082146124115780806123fa90613f27565b915050600a8261240a9190613f9f565b91506123e7565b60008167ffffffffffffffff81111561242d5761242c612e06565b5b6040519080825280601f01601f19166020018201604052801561245f5781602001600182028036833780820191505090505b5090505b600085146124ec5760018261247891906134d2565b9150600a856124879190613fd0565b60306124939190613a94565b60f81b8183815181106124a9576124a861340d565b5b60200101907effffffffffffffffffffffffffffffffffffffffffffffffffffffffffffff1916908160001a905350600a856124e59190613f9f565b9450612463565b8093505050505b919050565b505050565b600980549050600a600083815260200190815260200160002081905550600981908060018154018082558091505060019003906000526020600020016000909190919091505550565b6000600161255384610d31565b61255d91906134d2565b9050600060086000848152602001908152602001600020549050818114612642576000600760008673ffffffffffffffffffffffffffffffffffffffff1673ffffffffffffffffffffffffffffffffffffffff168152602001908152602001600020600084815260200190815260200160002054905080600760008773ffffffffffffffffffffffffffffffffffffffff1673ffffffffffffffffffffffffffffffffffffffff168152602001908152602001600020600084815260200190815260200160002081905550816008600083815260200190815260200160002081905550505b6008600084815260200190815260200160002060009055600760008573ffffffffffffffffffffffffffffffffffffffff1673ffffffffffffffffffffffffffffffffffffffff16815260200190815260200160002060008381526020019081526020016000206000905550505050565b600060016009805490506126c791906134d2565b90506000600a60008481526020019081526020016000205490506000600983815481106126f7576126f661340d565b5b9060005260206000200154905080600983815481106127195761271861340d565b5b906000526020600020018190555081600a600083815260200190815260200160002081905550600a600085815260200190815260200160002060009055600980548061276857612767614001565b5b6001900381819060005260206000200160009055905550505050565b600061278f83610d31565b905081600760008573ffffffffffffffffffffffffffffffffffffffff1673ffffffffffffffffffffffffffffffffffffffff168152602001908152602001600020600083815260200190815260200160002081905550806008600084815260200190815260200160002081905550505050565b604051806060016040528060008152602001600060ff168152602001600073ffffffffffffffffffffffffffffffffffffffff1681525090565b828054612849906131b9565b90600052602060002090601f01602090048101928261286b57600085556128b2565b82601f1061288457805160ff19168380011785556128b2565b828001600101855582156128b2579182015b828111156128b1578251825591602001919060010190612896565b5b5090506128bf91906128c3565b5090565b5b808211156128dc5760008160009055506001016128c4565b5090565b6000604051905090565b600080fd5b600080fd5b60007fffffffff0000000000000000000000000000000000000000000000000000000082169050919050565b612929816128f4565b811461293457600080fd5b50565b60008135905061294681612920565b92915050565b600060208284031215612962576129616128ea565b5b600061297084828501612937565b91505092915050565b60008115159050919050565b61298e81612979565b82525050565b60006020820190506129a96000830184612985565b92915050565b600081519050919050565b600082825260208201905092915050565b60005b838110156129e95780820151818401526020810190506129ce565b838111156129f8576000848401525b50505050565b6000601f19601f8301169050919050565b6000612a1a826129af565b612a2481856129ba565b9350612a348185602086016129cb565b612a3d816129fe565b840191505092915050565b60006020820190508181036000830152612a628184612a0f565b905092915050565b6000819050919050565b612a7d81612a6a565b8114612a8857600080fd5b50565b600081359050612a9a81612a74565b92915050565b600060208284031215612ab657612ab56128ea565b5b6000612ac484828501612a8b565b91505092915050565b600073ffffffffffffffffffffffffffffffffffffffff82169050919050565b6000612af882612acd565b9050919050565b612b0881612aed565b82525050565b6000602082019050612b236000830184612aff565b92915050565b612b3281612aed565b8114612b3d57600080fd5b50565b600081359050612b4f81612b29565b92915050565b60008060408385031215612b6c57612b6b6128ea565b5b6000612b7a85828601612b40565b9250506020612b8b85828601612a8b565b9150509250929050565b600060ff82169050919050565b612bab81612b95565b8114612bb657600080fd5b50565b600081359050612bc881612ba2565b92915050565b60008060408385031215612be557612be46128ea565b5b6000612bf385828601612a8b565b9250506020612c0485828601612bb9565b9150509250929050565b612c1781612a6a565b82525050565b6000602082019050612c326000830184612c0e565b92915050565b600080600060608486031215612c5157612c506128ea565b5b6000612c5f86828701612b40565b9350506020612c7086828701612b40565b9250506040612c8186828701612a8b565b9150509250925092565b6000819050919050565b6000612cb0612cab612ca684612acd565b612c8b565b612acd565b9050919050565b6000612cc282612c95565b9050919050565b6000612cd482612cb7565b9050919050565b612ce481612cc9565b82525050565b600063ffffffff82169050919050565b612d0381612cea565b82525050565b600060a0820190508181036000830152612d238188612a0f565b9050612d326020830187612cdb565b612d3f6040830186612cfa565b612d4c6060830185612cfa565b612d596080830184612985565b9695505050505050565b600060208284031215612d7957612d786128ea565b5b6000612d8784828501612b40565b91505092915050565b612d9981612979565b8114612da457600080fd5b50565b600081359050612db681612d90565b92915050565b60008060408385031215612dd357612dd26128ea565b5b6000612de185828601612b40565b9250506020612df285828601612da7565b9150509250929050565b600080fd5b600080fd5b7f4e487b7100000000000000000000000000000000000000000000000000000000600052604160045260246000fd5b612e3e826129fe565b810181811067ffffffffffffffff82111715612e5d57612e5c612e06565b5b80604052505050565b6000612e706128e0565b9050612e7c8282612e35565b919050565b600067ffffffffffffffff821115612e9c57612e9b612e06565b5b612ea5826129fe565b9050602081019050919050565b82818337600083830152505050565b6000612ed4612ecf84612e81565b612e66565b905082815260208101848484011115612ef057612eef612e01565b5b612efb848285612eb2565b509392505050565b600082601f830112612f1857612f17612dfc565b5b8135612f28848260208601612ec1565b91505092915050565b60008060008060808587031215612f4b57612f4a6128ea565b5b6000612f5987828801612b40565b9450506020612f6a87828801612b40565b9350506040612f7b87828801612a8b565b925050606085013567ffffffffffffffff811115612f9c57612f9b6128ef565b5b612fa887828801612f03565b91505092959194509250565b612fbd81612b95565b82525050565b6000606082019050612fd86000830186612c0e565b612fe56020830185612fb4565b612ff26040830184612aff565b949350505050565b600067ffffffffffffffff82111561301557613014612e06565b5b61301e826129fe565b9050602081019050919050565b600061303e61303984612ffa565b612e66565b90508281526020810184848401111561305a57613059612e01565b5b613065848285612eb2565b509392505050565b600082601f83011261308257613081612dfc565b5b813561309284826020860161302b565b91505092915050565b6130a481612cea565b81146130af57600080fd5b50565b6000813590506130c18161309b565b92915050565b600080600080608085870312156130e1576130e06128ea565b5b600085013567ffffffffffffffff8111156130ff576130fe6128ef565b5b61310b8782880161306d565b945050602061311c87828801612b40565b935050604061312d878288016130b2565b925050606061313e878288016130b2565b91505092959194509250565b60008060408385031215613161576131606128ea565b5b600061316f85828601612b40565b925050602061318085828601612b40565b9150509250929050565b7f4e487b7100000000000000000000000000000000000000000000000000000000600052602260045260246000fd5b600060028204905060018216806131d157607f821691505b602082108114156131e5576131e461318a565b5b50919050565b7f4552433732313a20617070726f76656420717565727920666f72206e6f6e657860008201527f697374656e7420746f6b656e0000000000000000000000000000000000000000602082015250565b6000613247602c836129ba565b9150613252826131eb565b604082019050919050565b600060208201905081810360008301526132768161323a565b9050919050565b7f4552433732313a20617070726f76616c20746f2063757272656e74206f776e6560008201527f7200000000000000000000000000000000000000000000000000000000000000602082015250565b60006132d96021836129ba565b91506132e48261327d565b604082019050919050565b60006020820190508181036000830152613308816132cc565b9050919050565b7f4552433732313a20617070726f76652063616c6c6572206973206e6f74206f7760008201527f6e6572206e6f7220617070726f76656420666f7220616c6c0000000000000000602082015250565b600061336b6038836129ba565b91506133768261330f565b604082019050919050565b6000602082019050818103600083015261339a8161335e565b9050919050565b7f72616e6b206d75737420626520612076616c75652061626f7665203000000000600082015250565b60006133d7601c836129ba565b91506133e2826133a1565b602082019050919050565b60006020820190508181036000830152613406816133ca565b9050919050565b7f4e487b7100000000000000000000000000000000000000000000000000000000600052603260045260246000fd5b7f4e487b7100000000000000000000000000000000000000000000000000000000600052601160045260246000fd5b600061347682612cea565b915061348183612cea565b92508163ffffffff048311821515161561349e5761349d61343c565b5b828202905092915050565b60006040820190506134be6000830185612aff565b6134cb6020830184612cfa565b9392505050565b60006134dd82612a6a565b91506134e883612a6a565b9250828210156134fb576134fa61343c565b5b828203905092915050565b7f4552433732313a207472616e736665722063616c6c6572206973206e6f74206f60008201527f776e6572206e6f7220617070726f766564000000000000000000000000000000602082015250565b60006135626031836129ba565b915061356d82613506565b604082019050919050565b6000602082019050818103600083015261359181613555565b9050919050565b7f455243373231456e756d657261626c653a206f776e657220696e646578206f7560008201527f74206f6620626f756e6473000000000000000000000000000000000000000000602082015250565b60006135f4602b836129ba565b91506135ff82613598565b604082019050919050565b60006020820190508181036000830152613623816135e7565b9050919050565b7f455243373231456e756d657261626c653a20676c6f62616c20696e646578206f60008201527f7574206f6620626f756e64730000000000000000000000000000000000000000602082015250565b6000613686602c836129ba565b91506136918261362a565b604082019050919050565b600060208201905081810360008301526136b581613679565b9050919050565b7f4552433732313a206f776e657220717565727920666f72206e6f6e657869737460008201527f656e7420746f6b656e0000000000000000000000000000000000000000000000602082015250565b60006137186029836129ba565b9150613723826136bc565b604082019050919050565b600060208201905081810360008301526137478161370b565b9050919050565b7f4552433732313a2062616c616e636520717565727920666f7220746865207a6560008201527f726f206164647265737300000000000000000000000000000000000000000000602082015250565b60006137aa602a836129ba565b91506137b58261374e565b604082019050919050565b600060208201905081810360008301526137d98161379d565b9050919050565b7f4f776e61626c653a2063616c6c6572206973206e6f7420746865206f776e6572600082015250565b60006138166020836129ba565b9150613821826137e0565b602082019050919050565b6000602082019050818103600083015261384581613809565b9050919050565b7f4f776e61626c653a206e6577206f776e657220697320746865207a65726f206160008201527f6464726573730000000000000000000000000000000000000000000000000000602082015250565b60006138a86026836129ba565b91506138b38261384c565b604082019050919050565b600060208201905081810360008301526138d78161389b565b9050919050565b7f4552433732313a206f70657261746f7220717565727920666f72206e6f6e657860008201527f697374656e7420746f6b656e0000000000000000000000000000000000000000602082015250565b600061393a602c836129ba565b9150613945826138de565b604082019050919050565b600060208201905081810360008301526139698161392d565b9050919050565b7f4552433732313a207472616e736665722066726f6d20696e636f72726563742060008201527f6f776e6572000000000000000000000000000000000000000000000000000000602082015250565b60006139cc6025836129ba565b91506139d782613970565b604082019050919050565b600060208201905081810360008301526139fb816139bf565b9050919050565b7f4552433732313a207472616e7366657220746f20746865207a65726f2061646460008201527f7265737300000000000000000000000000000000000000000000000000000000602082015250565b6000613a5e6024836129ba565b9150613a6982613a02565b604082019050919050565b60006020820190508181036000830152613a8d81613a51565b9050919050565b6000613a9f82612a6a565b9150613aaa83612a6a565b9250827fffffffffffffffffffffffffffffffffffffffffffffffffffffffffffffffff03821115613adf57613ade61343c565b5b828201905092915050565b7f4552433732313a20617070726f766520746f2063616c6c657200000000000000600082015250565b6000613b206019836129ba565b9150613b2b82613aea565b602082019050919050565b60006020820190508181036000830152613b4f81613b13565b9050919050565b7f4552433732313a207472616e7366657220746f206e6f6e20455243373231526560008201527f63656976657220696d706c656d656e7465720000000000000000000000000000602082015250565b6000613bb26032836129ba565b9150613bbd82613b56565b604082019050919050565b60006020820190508181036000830152613be181613ba5565b9050919050565b7f45524337323155524953746f726167653a2055524920717565727920666f722060008201527f6e6f6e6578697374656e7420746f6b656e000000000000000000000000000000602082015250565b6000613c446031836129ba565b9150613c4f82613be8565b604082019050919050565b60006020820190508181036000830152613c7381613c37565b9050919050565b600081905092915050565b6000613c90826129af565b613c9a8185613c7a565b9350613caa8185602086016129cb565b80840191505092915050565b6000613cc28285613c85565b9150613cce8284613c85565b91508190509392505050565b600081519050919050565b600082825260208201905092915050565b6000613d0182613cda565b613d0b8185613ce5565b9350613d1b8185602086016129cb565b613d24816129fe565b840191505092915050565b6000608082019050613d446000830187612aff565b613d516020830186612aff565b613d5e6040830185612c0e565b8181036060830152613d708184613cf6565b905095945050505050565b600081519050613d8a81612920565b92915050565b600060208284031215613da657613da56128ea565b5b6000613db484828501613d7b565b91505092915050565b7f4552433732314d657461646174613a2055524920717565727920666f72206e6f60008201527f6e6578697374656e7420746f6b656e0000000000000000000000000000000000602082015250565b6000613e19602f836129ba565b9150613e2482613dbd565b604082019050919050565b60006020820190508181036000830152613e4881613e0c565b9050919050565b7f4552433732313a206d696e7420746f20746865207a65726f2061646472657373600082015250565b6000613e856020836129ba565b9150613e9082613e4f565b602082019050919050565b60006020820190508181036000830152613eb481613e78565b9050919050565b7f4552433732313a20746f6b656e20616c7265616479206d696e74656400000000600082015250565b6000613ef1601c836129ba565b9150613efc82613ebb565b602082019050919050565b60006020820190508181036000830152613f2081613ee4565b9050919050565b6000613f3282612a6a565b91507fffffffffffffffffffffffffffffffffffffffffffffffffffffffffffffffff821415613f6557613f6461343c565b5b600182019050919050565b7f4e487b7100000000000000000000000000000000000000000000000000000000600052601260045260246000fd5b6000613faa82612a6a565b9150613fb583612a6a565b925082613fc557613fc4613f70565b5b828204905092915050565b6000613fdb82612a6a565b9150613fe683612a6a565b925082613ff657613ff5613f70565b5b828206905092915050565b7f4e487b7100000000000000000000000000000000000000000000000000000000600052603160045260246000fdfea26469706673582212204686a9fb76d3bd89e8755c4dedf26afe4f597c6dd3c1bf4aa7b650fe4951c35164736f6c634300080c0033",
  "immutableReferences": {},
  "source": "// SPDX-License-Identifier: MIT\npragma solidity ^0.8.4;\n\nimport \"@openzeppelin/contracts/access/Ownable.sol\";\nimport \"@openzeppelin/contracts/token/ERC721/ERC721.sol\";\nimport \"@openzeppelin/contracts/token/ERC721/extensions/ERC721Enumerable.sol\";\nimport \"@openzeppelin/contracts/token/ERC721/extensions/ERC721URIStorage.sol\";\n\ninterface StakingERC20 {\n    function burn(address account, uint32 amount) external;\n}\n\ncontract Crafterverse is Ownable, ERC721, ERC721Enumerable, ERC721URIStorage {\n    struct Recipe {\n        string name;\n        StakingERC20 ingredient; // getting dynamic struct arrays is still goofy - todo use emit\n        uint32 amount;\n        uint32 skill;\n        bool active;\n    }\n\n    struct Item {\n        uint256 id;\n        uint8 rank;\n        address createdBy;\n    }\n\n    Recipe[] public recipes;\n    Item[] public items;\n\n    constructor() ERC721(\"Crafterverse\", \"CV\") {}\n\n    function addRecipe(\n        string memory name,\n        address ingredient,\n        uint32 amounts,\n        uint32 skill\n    ) public onlyOwner returns (uint256) {\n        recipes.push(\n            Recipe(name, StakingERC20(ingredient), amounts, skill, true)\n        );\n        return recipes.length - 1;\n    }\n\n    function craftItem(uint256 id, uint8 rank) public {\n        require(rank > 0, \"rank must be a value above 0\");\n\n        uint32 amount = recipes[id].amount * rank;\n        recipes[id].ingredient.burn(msg.sender, amount);\n\n        Item memory newItem;\n\n        newItem.id = id;\n        newItem.rank = rank;\n        newItem.createdBy = msg.sender;\n\n        items.push(newItem);\n\n        uint256 tokenId = items.length - 1;\n        _safeMint(msg.sender, tokenId);\n    }\n\n    function totalRecipes() public view returns (uint256) {\n        return recipes.length;\n    }\n\n    function totalItems() public view returns (uint256) {\n        return items.length;\n    }\n\n    // The following functions are overrides required by Solidity.\n\n    function _beforeTokenTransfer(\n        address from,\n        address to,\n        uint256 tokenId\n    ) internal override(ERC721, ERC721Enumerable) {\n        super._beforeTokenTransfer(from, to, tokenId);\n    }\n\n    function _burn(uint256 tokenId)\n        internal\n        override(ERC721, ERC721URIStorage)\n    {\n        super._burn(tokenId);\n    }\n\n    function tokenURI(uint256 tokenId)\n        public\n        view\n        override(ERC721, ERC721URIStorage)\n        returns (string memory)\n    {\n        return super.tokenURI(tokenId);\n    }\n\n    function supportsInterface(bytes4 interfaceId)\n        public\n        view\n        override(ERC721, ERC721Enumerable)\n        returns (bool)\n    {\n        return super.supportsInterface(interfaceId);\n    }\n}\n",
  "sourcePath": "/home/hayek/proj/crafterquest/contracts/Crafterverse.sol",
  "compiler": {
    "name": "solc",
    "version": "0.8.12+commit.f00d7308.Emscripten.clang"
  },
  "schemaVersion": "3.4.5",
  "updatedAt": "2022-03-13T02:28:33.954Z",
  "networkType": "ethereum",
  "devdoc": {
    "kind": "dev",
    "methods": {
      "approve(address,uint256)": {
        "details": "See {IERC721-approve}."
      },
      "balanceOf(address)": {
        "details": "See {IERC721-balanceOf}."
      },
      "getApproved(uint256)": {
        "details": "See {IERC721-getApproved}."
      },
      "isApprovedForAll(address,address)": {
        "details": "See {IERC721-isApprovedForAll}."
      },
      "name()": {
        "details": "See {IERC721Metadata-name}."
      },
      "owner()": {
        "details": "Returns the address of the current owner."
      },
      "ownerOf(uint256)": {
        "details": "See {IERC721-ownerOf}."
      },
      "renounceOwnership()": {
        "details": "Leaves the contract without owner. It will not be possible to call `onlyOwner` functions anymore. Can only be called by the current owner. NOTE: Renouncing ownership will leave the contract without an owner, thereby removing any functionality that is only available to the owner."
      },
      "safeTransferFrom(address,address,uint256)": {
        "details": "See {IERC721-safeTransferFrom}."
      },
      "safeTransferFrom(address,address,uint256,bytes)": {
        "details": "See {IERC721-safeTransferFrom}."
      },
      "setApprovalForAll(address,bool)": {
        "details": "See {IERC721-setApprovalForAll}."
      },
      "symbol()": {
        "details": "See {IERC721Metadata-symbol}."
      },
      "tokenByIndex(uint256)": {
        "details": "See {IERC721Enumerable-tokenByIndex}."
      },
      "tokenOfOwnerByIndex(address,uint256)": {
        "details": "See {IERC721Enumerable-tokenOfOwnerByIndex}."
      },
      "totalSupply()": {
        "details": "See {IERC721Enumerable-totalSupply}."
      },
      "transferFrom(address,address,uint256)": {
        "details": "See {IERC721-transferFrom}."
      },
      "transferOwnership(address)": {
        "details": "Transfers ownership of the contract to a new account (`newOwner`). Can only be called by the current owner."
      }
    },
    "version": 1
  },
  "userdoc": {
    "kind": "user",
    "methods": {},
    "version": 1
  }
}